:100000000C9462000C948A000C948A000C948A0070
:100010000C948A000C948A000C948A000C948A0038
:100020000C948A000C948A000C948A000C948A0028
:100030000C948A000C948A000C948A000C948A0018
:100040000C94F5030C948A000C94C3030C949D0348
:100050000C948A000C948A000C948A000C948A00F8
:100060000C948A000C948A000000000024002700F1
:100070002A0000000000250028002B0000000000DE
:1000800023002600290004040404040404040202DA
:100090000202020203030303030301020408102007
:1000A0004080010204081020010204081020000012
:1000B0000008000201000003040700000000000027
:1000C0000000CF0511241FBECFEFD8E0DEBFCDBFAB
:1000D00015E0A0E0B1E0EAEEFCE002C005900D9270
:1000E000AC36B107D9F726E0ACE6B5E001C01D9209
:1000F000AC32B207E1F710E0C2E6D0E004C02197CD
:10010000FE010E946806C136D107C9F70E94FC05AE
:100110000C9473060C940000CF92DF92EF92FF9242
:100120000F931F93CF93DF936C017A018B01C0E093
:10013000D0E0CE15DF0589F0D8016D918D01D60193
:10014000ED91FC910190F081E02DC6010995892B7C
:1001500011F47E0102C02196ECCFC701DF91CF914F
:100160001F910F91FF90EF90DF90CF900895089529
:1001700080E090E00895FC01538D448D252F30E000
:10018000842F90E0821B930B541710F0CF960895A4
:1001900001970895FC01918D828D981761F0828DF1
:1001A000DF01A80FB11D5D968C91928D9F5F9F73AB
:1001B000928F90E008958FEF9FEF0895FC01918D4D
:1001C000828D981731F0828DE80FF11D858D90E0BA
:1001D00008958FEF9FEF0895FC01918D228D892F57
:1001E00090E0805C9F4F821B91098F73992708953F
:1001F0008FE895E00E94EC0021E0892B09F420E0D3
:10020000822F0895CF92DF92EF92FF921F93CF93A8
:10021000DF93EC016A017B01122FE889F98982E002
:1002200080834115514E61057105B1F060E079E0C0
:100230008DE390E0A70196010E944606DA01C9010C
:100240000197A109B109B695A79597958795AC0136
:10025000411580E15807A8F0E889F989108260E823
:1002600074E88EE190E0A70196010E944606BA016B
:10027000A901415051096109710976956795579512
:100280004795EC85FD855083EE85FF854083188E6C
:10029000EC89FD891083EA89FB89808180618083F4
:1002A000EA89FB89808188608083EA89FB89808173
:1002B00080688083EA89FB8980818F7D8083DF91DC
:1002C000CF911F91FF90EF90DF90CF900895FC01A8
:1002D000848DDF01A80FB11DA35ABF4F2C91848DCF
:1002E00090E001968F739927848FA689B7892C9304
:1002F000A089B1898C9180648C93938D848D98139F
:1003000006C00288F389E02D80818F7D8083089567
:10031000EF92FF920F931F93CF93DF93EC0181E055
:10032000888F9B8D8C8D981305C0E889F989808111
:1003300085FD24C0F62E0B8D10E00F5F1F4F0F734D
:100340001127E02E8C8DE8120CC00FB607FCFACFF7
:10035000E889F989808185FFF5CFCE010E94670188
:10036000F1CF8B8DFE01E80FF11DE35AFF4FF082B4
:100370000B8FEA89FB898081806207C0EE89FF8943
:100380006083E889F98980818064808381E090E0DE
:10039000DF91CF911F910F91FF90EF900895CF9330
:1003A000DF93EC01888D8823C9F0EA89FB8980817D
:1003B00085FD05C0A889B9898C9186FD0FC00FB64F
:1003C00007FCF5CF808185FFF2CFA889B9898C9190
:1003D00085FFEDCFCE010E946701E7CFDF91CF917E
:1003E000089580E090E0892B29F00E94F8008111A7
:1003F0000C9400000895833081F028F4813099F046
:100400008230A1F008958730A9F08830B9F08430A7
:10041000D1F4809180008F7D03C0809180008F7720
:1004200080938000089584B58F7702C084B58F7D56
:1004300084BD08958091B0008F7703C08091B00093
:100440008F7D8093B0000895CF93DF93282F30E005
:10045000F901E255FF4F8491F901E656FF4FD4911F
:10046000F901EA57FF4FC491CC2391F081110E940A
:10047000FB01EC2FF0E0EE0FFF1FE458FF4FA591BA
:10048000B491EC91ED2381E090E021F480E002C092
:1004900080E090E0DF91CF9108951F93CF93DF9399
:1004A000282F30E0F901E255FF4F8491F901E6561B
:1004B000FF4FD491F901EA57FF4FC491CC23C9F003
:1004C000162F81110E94FB01EC2FF0E0EE0FFF1FB1
:1004D000EE58FF4FA591B4918FB7F894111105C054
:1004E0009C91ED2FE095E92302C0EC91ED2BEC936C
:1004F0008FBFDF91CF911F910895CF93DF9390E04D
:10050000FC01E656FF4F2491FC01EA57FF4F84910E
:10051000882361F190E0880F991FFC01E859FF4F93
:10052000C591D491FC01EE58FF4FA591B491611192
:1005300009C09FB7F8948881209582238883EC9125
:100540002E230BC0623061F49FB7F8943881822F5C
:10055000809583238883EC912E2B2C939FBF06C01C
:100560008FB7F894E8812E2B28838FBFDF91CF912E
:1005700008953FB7F89480918B0590918C05A091D8
:100580008D05B0918E0526B5A89B05C02F3F19F0AB
:100590000196A11DB11D3FBFBA2FA92F982F882703
:1005A000820F911DA11DB11DBC01CD0142E0660F5E
:1005B000771F881F991F4A95D1F708958F929F92B0
:1005C000AF92BF92CF92DF92EF92FF926B017C01CC
:1005D0000E94B9024B015C01C114D104E104F10491
:1005E000F1F00E94B902DC01CB0188199909AA092E
:1005F000BB09883E9340A105B10570F321E0C21A02
:10060000D108E108F10888EE880E83E0981EA11C4D
:10061000B11CC114D104E104F10419F7DDCFFF903E
:10062000EF90DF90CF90BF90AF909F908F90089504
:1006300026E00C9402010E946E066115710579F0A6
:10064000FB0101900020E9F73197AF01461B570BE2
:10065000DC01ED91FC910280F381E02D099480E0B2
:1006600090E008950F931F93CF93DF93EC010E94C6
:100670001D038C0162E275E0CE010E941D03800F14
:10068000911FDF91CF911F910F910895AF92BF926B
:10069000CF92DF92EF92FF920F931F93CF93DF934E
:1006A000CDB7DEB7A1970FB6F894DEBF0FBECDBFB2
:1006B0005C014115510541F4DC01ED91FC91019083
:1006C000F081E02D099526C019A2423008F44AE0D5
:1006D00070E080E090E08E010F5D1F4FC42ED12CA2
:1006E000E12CF12CA70196010E944606E62FCA01D3
:1006F000B90101501109EA3014F4E05D01C0E95C70
:10070000D801EC93232B242B252B61F7B801C501CD
:100710000E941D03A1960FB6F894DEBF0FBECDBF99
:10072000DF91CF911F910F91FF90EF90DF90CF90CD
:10073000BF90AF9008950C941D031F920F920FB6B7
:100740000F9211242F933F934F935F936F937F9357
:100750008F939F93AF93BF93EF93FF938FE895E0B1
:100760000E946701FF91EF91BF91AF919F918F918F
:100770007F916F915F914F913F912F910F900FBE9D
:100780000F901F9018951F920F920FB60F92112481
:100790002F938F939F93EF93FF93E0919F05F09199
:1007A000A0058081E091A505F091A60582FD12C00B
:1007B00090818091A8058F5F8F732091A905821782
:1007C00051F0E091A805F0E0E157FA4F958F809342
:1007D000A80501C08081FF91EF919F918F912F918A
:1007E0000F900FBE0F901F9018951F920F920FB68B
:1007F0000F9211242F933F938F939F93AF93BF93A7
:100800008091870590918805A0918905B0918A050E
:100810003091860523E0230F2D3720F40196A11D8A
:10082000B11D05C026E8230F0296A11DB11D20931E
:1008300086058093870590938805A0938905B093DA
:100840008A0580918B0590918C05A0918D05B091C2
:100850008E050196A11DB11D80938B0590938C058B
:10086000A0938D05B0938E05BF91AF919F918F910D
:100870003F912F910F900FBE0F901F9018951F93CF
:10088000CF93DF93C0E0D0E08C2F0E9424020C2E87
:1008900001C0880F0A94EAF7812B182F2196C830DF
:1008A000D10591F7DF91CF911F910895CF93C0E0CB
:1008B00060E08C2F0E947D0261E08C2F0E944D022F
:1008C000CF5FC830A9F761E08DE00E947D0240E86B
:1008D00055E260E070E08FE895E00E941803109206
:1008E0008505CF9108958F929F92AF92BF92CF923C
:1008F000DF92EF92FF920F931F93CF93DF9324E049
:100900008202C0011124FC01E050FF4FC080D18061
:10091000E280F380C114D104E104F10409F44DC074
:10092000C0E0D0E002E0812C912C54018394D501E9
:10093000C4010C2E04C0880F991FAA1FBB1F0A9464
:10094000D2F78C219D21AE21BF21892B8A2B8B2BA5
:1009500039F061E08DE00E944D021F5F01E010C0A0
:100960000023C1F060E08DE00E944D02133041F59C
:1009700065E275E08FE895E00E949B0300E010E0DF
:100980006AEF70E080E090E00E94DE022196C032C3
:10099000D10569F660E08DE00E944D026EEE72E0D6
:1009A00080E090E00E94DE0269E275E08FE895E069
:1009B0000E949B0381E090E006C08FEF9FEF03C091
:1009C00067E275E0D7CFDF91CF911F910F91FF9034
:1009D000EF90DF90CF90BF90AF909F908F90089551
:1009E000FF920F931F93CF93DF93182FF92E062FAB
:1009F0006EEE72E080E090E00E94DE02C12FDF2DFB
:100A0000E12FFF2DF12E8E2F811B801798F4A191DD
:100A100084E0A802D0011124A050BF4F8D919D9178
:100A20000D90BC91A02D892B8A2B8B2B61F78FEF1A
:100A30009FEF16C08C2F8F19801720F489910E9488
:100A40007304F8CF68EE73E080E090E00E94DE026D
:100A500064E275E08FE895E00E94320381E090E067
:100A6000DF91CF911F910F91FF900895CF93DF9366
:100A7000CDB7DEB7DA950FB6F894DEBF0FBECDBFA7
:100A8000FE013196DF019FEF9E0F1D929A13FDCF5D
:100A900095EB99839A8396E89B8394EB9C8394EFE0
:100AA0009D8393EB9E8391EF9F8320EB288729877B
:100AB0009A879DEE9B8790E89C879BEB9D879FE89C
:100AC0009E879FEB9F879DE8988B96EC998B95E886
:100AD0009A8B97E89B8B90EC9C8B94E99D8B91E88B
:100AE0009E8B9CE89F8BACE6B5E020E09191982727
:100AF000920F9D932F5F2731C9F78091760580343F
:100B0000A1F46BE275E08FE895E00E94320367E1A3
:100B10008CE695E00E94F0046CE675E08FE895E0C5
:100B20000E94320381E090E002C080E090E0D39523
:100B30000FB6F894DEBF0FBECDBFDF91CF91089501
:100B4000CF930E943F04C82F80918505C81701F1FB
:100B500060910005709101058FE895E00E949B036C
:100B600042E050E06C2F8FE895E00E94460364E27B
:100B700075E08FE895E00E9432038C2F0E943605C5
:100B8000019721F060E08DE00E944D02C093850541
:100B900068EE73E080E090E0CF910C94DE02EFE825
:100BA000F5E01382128288EE93E0A0E0B0E0848347
:100BB0009583A683B78384E195E09183808385EC58
:100BC00090E09587848784EC90E09787868780EC17
:100BD00090E0918B808B81EC90E0938B828B82EC08
:100BE00090E0958B848B86EC90E0978B868B118EB2
:100BF000128E138E148E0895789484B5826084BD0D
:100C000084B5816084BD85B5826085BD85B5816010
:100C100085BD80916E00816080936E00109281008E
:100C20008091810082608093810080918100816049
:100C3000809381008091800081608093800080910A
:100C4000B10084608093B1008091B0008160809396
:100C5000B00080917A00846080937A0080917A005D
:100C6000826080937A0080917A00816080937A001C
:100C700080917A00806880937A001092C1000E946F
:100C800056040E94A0050E94F101FBCFA1E21A2E9A
:100C9000AA1BBB1BFD010DC0AA1FBB1FEE1FFF1F20
:100CA000A217B307E407F50720F0A21BB30BE40B70
:100CB000F50B661F771F881F991F1A9469F76095B7
:100CC0007095809590959B01AC01BD01CF01089571
:100CD000EE0FFF1F0590F491E02D099481E090E064
:0A0CE000F8940C947306F894FFCF0B
:100CEA0000000000000000000000000000000000FA
:100CFA0000000000000000000000000000000000EA
:100D0A0000000000000000000000000000000000D9
:100D1A0000000000000000000000000000000000C9
:100D2A0000000000000000000000000000000000B9
:100D3A0000000000000000000000000000000000A9
:100D4A000000000000000000000000000000000099
:100D5A000000000000000000000000000000000089
:100D6A0000000000D77507005D5D0000000000006C
:100D7A00D5D50100000000005D050000DDDD05009D
:100D8A00D75D0000D75D0700000000005D17000076
:100D9A0077750700577500005DD7010057170000E7
:100DAA0077770700DDDD010075770000D51D0000AB
:100DBA00550700005501000057050000771500008F
:100DCA00775700007777010077570100D775010040
:100DDA0000000000571D00000000000075570000C9
:100DEA00DD7501001D00000057010000D705000055
:100DFA0057000000010000007501000077010000A3
:100E0A005500000005000000DD1D0000D7010000AC
:100E1A005D0100007700000017000000770700005E
:100E2A00DD050000771D00005D00000015000000D0
:100E3A000700000075000000D5010000DD01000078
:100E4A0057070000D71D00007705000000000000CA
:100E5A0000000000000000000000000075D701003B
:100E6A00000000001D00000057010000D705000027
:100E7A005700000001000000750100007701000022
:100E8A005500000005000000DD1D0000D70100002C
:100E9A005D010000770000001700000077070000DE
:100EAA00DD050000771D00005D0000001500000050
:100EBA000700000075000000D5010000DD010000F8
:100ECA0057070000D71D000077050000000000004A
:100EDA000000000000000000000000000000000008
:100EEA0000000000000000000000000000000000F8
:100EFA0000000000000000000000000000000000E8
:100F0A0000000000000000000000000000000000D7
:1010EA003E051514131211100F0E13120D0C0B0AD4
:1010FA000000000088018C00BB00CF01EC00CA0090
:10110A00DE000D0A002D002E002000436F7272656A
:10111A0063742050696E2053746174653A00466C9A
:10112A006172652D4F6E20323031372041647275FD
:10113A00696E6F20554E4F204469676974616C204F
:0C114A0050696E2073746174653A0000F7
:00000001FF
